:100000000C9434000C9451000C9451000C94510049
:100010000C9451000C9451000C9451000C9451001C
:100020000C9451000C9451000C9451000C9451000C
:100030000C9451000C9451000C9451000C945100FC
:100040000C9451000C9451000C94C9010C941102B1
:100050000C9451000C9451000C9451000C945100DC
:100060000C9451000C94510011241FBECFEFD8E026
:10007000DEBFCDBF11E0A0E0B1E0ECE3F5E002C0EF
:1000800005900D92A03CB107D9F722E0A0ECB1E0B9
:1000900001C01D92A13DB207E1F70E9479000C94C6
:1000A0009C020C94000080E48093800008951092DC
:1000B00080000895880F991F9C0140E050E060E0A7
:1000C00072E18AE790E00E945D022150310930938D
:1000D000890020938800089584B1826084B91092C9
:1000E000800089E08093810084E690E00E945A00BD
:1000F00008950E9463010E946C0078940E94890018
:100100008091D0028823E1F31092D0020E94BE00B9
:10011000F7CF80E091E00E946F0189E391E00E94B7
:100120006F0184E691E00E946F018CE791E00E94EC
:100130006F0183E991E00E946F01089580538A3036
:1001400010F481E0089580E00895682F21E030E008
:1001500081E090E00DC0AC01440F551F880F991F3E
:10016000880F991F880F991F840F951F2F5F3F4F8E
:10017000462F50E02417350774F30895FF920F932C
:100180001F93CF93DF9380E008C08C2FC63029F4F3
:1001900083EA91E00E946F0190C0C1E0C80F90E037
:1001A00086539D4F0E94B001882339F0EC2FF0E078
:1001B000E753FD4F80818111E8CF65EB71E08AEC58
:1001C00092E00E949302892B19F40E94530075C09B
:1001D00068EB71E08AEC92E00E949302892B19F49B
:1001E0000E9457006AC06CEB71E08AEC92E00E94BA
:1001F0009302892B29F40E946C000E9489005DC043
:10020000EAECF2E001900020E9F73197EA5CF24075
:10021000339750F54EC0EF2DF0E0E653FD4FC0810F
:100220008C2F0E949E00811105C083EA91E00E94FC
:100230006F0143C0D0E0E097802F8F190E94A50086
:100240009C01C29FC001C39F900DD29F900D1124AD
:100250002091C0013091C101820F931F9093C10181
:100260008093C001F39401C0F12C8F2D90E0EAEC53
:10027000F2E001900020E9F731978F010A5C12400B
:100280008017910740F28091C0019091C1019C01BB
:10029000245631092D3A364218F40E945A0004C0FF
:1002A00083EA91E00E946F011092C1011092C00197
:1002B00004C083EA91E00E946F01DF91CF911F910A
:1002C0000F91FF9008951092C50083E38093C400BE
:1002D00088E98093C10086E08093C2000895CF939F
:1002E000DF93EC01F0E016C02091C80230E0C901B4
:1002F00001966AEF70E00E9449024091C90250E005
:100300008417950769F0FF5FD901A453BE4FEC93A2
:100310008093C802DE01AF0FB11DEC91E111E4CF73
:10032000E1111BC02091C80230E0C90101966AEFBB
:1003300070E00E9449024091C90250E0841795077D
:1003400061F0F901E453FE4F9DE090838093C80271
:10035000E1ECF0E0808180628083DF91CF910895AD
:10036000FC012091C7029091C602291781F030E06C
:10037000D901AE53BE4F8C918083C90101966AE0CA
:1003800070E00E9449028093C70281E0089580E0F6
:1003900008951F920F920FB60F9211242F933F933F
:1003A0004F935F936F937F938F939F93AF93BF937D
:1003B000EF93FF932091C60230E0C90101966AE0F5
:1003C00070E00E9449024091C702642F70E08617D6
:1003D000970729F44093C6028091D00211C0409142
:1003E000C600F901EE53FE4F40834D3039F4F90158
:1003F000EE53FE4F108221E02093D0028093C6027C
:10040000FF91EF91BF91AF919F918F917F916F91EC
:100410005F914F913F912F910F900FBE0F901F90C2
:1004200018951F920F920FB60F9211245F936F933E
:100430007F938F939F93AF93BF93EF93FF93E0913D
:10044000C9028091C802E81789F0F0E0E453FE4F3A
:1004500080818093C6008091C90290E001966AEF86
:1004600070E00E9449028093C90205C0E1ECF0E00F
:1004700080818F7D8083FF91EF91BF91AF919F919C
:100480008F917F916F915F910F900FBE0F901F9092
:10049000189597FB072E16F4009407D077FD09D026
:1004A0000E947F0207FC05D03EF4909581959F4FF6
:1004B0000895709561957F4F0895A1E21A2EAA1BA9
:1004C000BB1BFD010DC0AA1FBB1FEE1FFF1FA21704
:1004D000B307E407F50720F0A21BB30BE40BF50B01
:1004E000661F771F881F991F1A9469F7609570958A
:1004F000809590959B01AC01BD01CF010895AA1B89
:10050000BB1B51E107C0AA1FBB1FA617B70710F0FE
:10051000A61BB70B881F991F5A95A9F78095909530
:10052000BC01CD010895FB01DC018D910190801982
:0C0530000110D9F3990B0895F894FFCF47
:10053C0047656E657261646F72206465207365F146
:10054C00616C6573206469676974616C65732064A0
:10055C0065206672656375656E6369612070726F84
:10056C006772616D61626C6500496E677265736577
:10057C0020756E61206672656375656E63696120B6
:10058C00656E747265203130302079203130303016
:10059C0030485A004F4E202D20456E63656E6465C1
:1005AC00722067656E657261646F72004F464620FB
:1005BC002D204170616761722067656E65726164A0
:1005CC006F7200525354202D205265696E69636915
:1005DC00617200436F6D616E646F206E6F2076E107
:1005EC006C69646F004F4E004F46460052535400E6
:00000001FF
